{
    "_format": "hh-sol-artifact-1",
    "contractName": "RedEnvelope",
    "sourceName": "contracts/RedEnvelope.sol",
    "abi": [
        {
            "inputs": [
                {
                    "internalType": "address",
                    "name": "_creator",
                    "type": "address"
                },
                {
                    "internalType": "contract EncryptedERC20",
                    "name": "_token",
                    "type": "address"
                },
                {
                    "internalType": "uint256",
                    "name": "_maxGifts",
                    "type": "uint256"
                },
                {
                    "internalType": "euint32",
                    "name": "_totalAmount",
                    "type": "uint256"
                }
            ],
            "stateMutability": "nonpayable",
            "type": "constructor"
        },
        {
            "anonymous": false,
            "inputs": [
                {
                    "indexed": true,
                    "internalType": "address",
                    "name": "recipient",
                    "type": "address"
                },
                {
                    "indexed": true,
                    "internalType": "address",
                    "name": "token",
                    "type": "address"
                },
                {
                    "indexed": false,
                    "internalType": "uint256",
                    "name": "amount",
                    "type": "uint256"
                }
            ],
            "name": "GiftClaimed",
            "type": "event"
        },
        {
            "inputs": [
                {
                    "internalType": "address",
                    "name": "user",
                    "type": "address"
                }
            ],
            "name": "canClaim",
            "outputs": [
                {
                    "internalType": "bool",
                    "name": "",
                    "type": "bool"
                }
            ],
            "stateMutability": "view",
            "type": "function"
        },
        {
            "inputs": [
                {
                    "internalType": "address",
                    "name": "user",
                    "type": "address"
                }
            ],
            "name": "claim",
            "outputs": [
                {
                    "internalType": "uint32",
                    "name": "",
                    "type": "uint32"
                }
            ],
            "stateMutability": "nonpayable",
            "type": "function"
        },
        {
            "inputs": [],
            "name": "claimedGifts",
            "outputs": [
                {
                    "internalType": "uint256",
                    "name": "",
                    "type": "uint256"
                }
            ],
            "stateMutability": "view",
            "type": "function"
        },
        {
            "inputs": [],
            "name": "creator",
            "outputs": [
                {
                    "internalType": "address",
                    "name": "",
                    "type": "address"
                }
            ],
            "stateMutability": "view",
            "type": "function"
        },
        {
            "inputs": [
                {
                    "internalType": "address",
                    "name": "user",
                    "type": "address"
                }
            ],
            "name": "getClaimedAmount",
            "outputs": [
                {
                    "internalType": "uint32",
                    "name": "",
                    "type": "uint32"
                }
            ],
            "stateMutability": "view",
            "type": "function"
        },
        {
            "inputs": [],
            "name": "getClaimers",
            "outputs": [
                {
                    "internalType": "address[]",
                    "name": "",
                    "type": "address[]"
                }
            ],
            "stateMutability": "view",
            "type": "function"
        },
        {
            "inputs": [],
            "name": "maxGifts",
            "outputs": [
                {
                    "internalType": "uint256",
                    "name": "",
                    "type": "uint256"
                }
            ],
            "stateMutability": "view",
            "type": "function"
        },
        {
            "inputs": [],
            "name": "token",
            "outputs": [
                {
                    "internalType": "contract EncryptedERC20",
                    "name": "",
                    "type": "address"
                }
            ],
            "stateMutability": "view",
            "type": "function"
        }
    ],
    "bytecode": "0x60806040523480156200001157600080fd5b506040516200118f3803806200118f83398101604081905262000034916200091a565b600082116200008a5760405162461bcd60e51b815260206004820152601460248201527f6d61784769667473206d757374206265203e203000000000000000000000000060448201526064015b60405180910390fd5b611388821115620000de5760405162461bcd60e51b815260206004820152601860248201527f6d61784769667473206d757374206265203c3d20353030300000000000000000604482015260640162000081565b620000f5620000ef826000620002e7565b62000327565b600080546001600160a01b038087166001600160a01b03199283161790925560018054928616929091169190911790556002829055816001600160401b0381111562000145576200014562000967565b6040519080825280602002602001820160405280156200016f578160200160208202803683370190505b508051620001869160059160209091019062000845565b50816001600160401b03811115620001a257620001a262000967565b604051908082528060200260200182016040528015620001cc578160200160208202803683370190505b508051620001e39160049160209091019062000895565b5060005b82811015620002dc576000620002126200020a6200020462000335565b62000348565b849062000355565b90506200023962000231620002296001876200097d565b84146200037e565b8483620003ad565b600583815481106200024f576200024f6200099f565b9060005260206000200181905550620002c162000291600654600585815481106200027e576200027e6200099f565b60009182526020909120015490620003c4565b60058481548110620002a757620002a76200099f565b9060005260206000200154600654620003ad60201b60201c565b600655620002d0838262000402565b925050600101620001e7565b5050505050620009cf565b600082620002fe57620002fb60006200043c565b92505b6200031e620003168463ffffffff851660016200044b565b6000620004ea565b90505b92915050565b620003328162000566565b50565b6000620003436002620005c8565b905090565b600062000321826200063d565b6000826200036c576200036960006200043c565b92505b6200031e8363ffffffff841662000666565b600081156200039d5762000321620003976001620006e0565b620006ee565b62000321620003976000620006e0565b6000620003bc848484620006fc565b949350505050565b600082620003db57620003d860006200043c565b92505b81620003f057620003ed60006200043c565b91505b6200031e62000316848460006200044b565b60008262000419576200041660006200043c565b92505b816200042e576200042b60006200043c565b91505b6200031e838360006200074b565b600062000321826002620007a2565b6000808215620004615750600160f81b62000465565b5060005b604051631f31e28560e11b815260048101869052602481018590526001600160f81b031982166044820152605d90633e63c50a906064015b602060405180830381865afa158015620004bb573d6000803e3d6000fd5b505050506040513d601f19601f82011682018060405250810190620004e19190620009b5565b95945050505050565b60405163025f346960e51b8152600481018390526001600160f81b031960f883901b166024820152600090605d90634be68d20906044015b602060405180830381865afa15801562000540573d6000803e3d6000fd5b505050506040513d601f19601f820116820180604052508101906200031e9190620009b5565b6000816040516024016200057c91815260200190565b60408051601f198184030181529190526020810180516001600160e01b0316634ee071a160e01b1781528151919250605d9060009081908490845afa620005c257600080fd5b50505050565b60405163480694a760e11b81526001600160f81b031960f883901b166004820152600090605d9063900d294e906024015b602060405180830381865afa15801562000617573d6000803e3d6000fd5b505050506040513d601f19601f82011682018060405250810190620003219190620009b5565b6040516301693b9160e61b815260048101829052600090605d90635a4ee44090602401620005f9565b6040516370628b5760e11b81526004810183905260248101829052600160f81b60448201819052600091605d9063e0c516ae90606401602060405180830381865afa158015620006ba573d6000803e3d6000fd5b505050506040513d601f19601f82011682018060405250810190620003bc9190620009b5565b6000620003218282620007a2565b6000620003218282620007df565b60405163cb3b940760e01b8152600481018490526024810183905260448101829052600090605d9063cb3b940790606401602060405180830381865afa158015620006ba573d6000803e3d6000fd5b6000808215620007615750600160f81b62000765565b5060005b604051638c14cc2160e01b815260048101869052602481018590526001600160f81b031982166044820152605d90638c14cc21906064016200049d565b604051631ce2e8d760e31b8152600481018390526001600160f81b031960f883901b166024820152600090605d9063e71746b89060440162000522565b600082620007f657620007f36000620006e0565b92505b6200031e8360ff841660016000600160f81b604051631927108160e01b815260048101869052602481018590526001600160f81b031982166044820152605d906319271081906064016200049d565b82805482825590600052602060002090810192821562000883579160200282015b828111156200088357825182559160200191906001019062000866565b5062000891929150620008ed565b5090565b82805482825590600052602060002090810192821562000883579160200282015b828111156200088357825182546001600160a01b0319166001600160a01b03909116178255602090920191600190910190620008b6565b5b80821115620008915760008155600101620008ee565b6001600160a01b03811681146200033257600080fd5b600080600080608085870312156200093157600080fd5b84516200093e8162000904565b6020860151909450620009518162000904565b6040860151606090960151949790965092505050565b634e487b7160e01b600052604160045260246000fd5b818103818111156200032157634e487b7160e01b600052601160045260246000fd5b634e487b7160e01b600052603260045260246000fd5b600060208284031215620009c857600080fd5b5051919050565b6107b080620009df6000396000f3fe608060405234801561001057600080fd5b50600436106100885760003560e01c806352b2710c1161005b57806352b2710c146101055780638df40be81461011a578063bf3506c114610149578063fc0c546a1461016c57600080fd5b806302d05d3f1461008d5780631e83409a146100bd5780633753986d146100e55780634018264d146100fc575b600080fd5b6000546100a0906001600160a01b031681565b6040516001600160a01b0390911681526020015b60405180910390f35b6100d06100cb3660046106c7565b61017f565b60405163ffffffff90911681526020016100b4565b6100ee60035481565b6040519081526020016100b4565b6100ee60025481565b61010d61034e565b6040516100b491906106f0565b6100d06101283660046106c7565b6001600160a01b031660009081526008602052604090205463ffffffff1690565b61015c6101573660046106c7565b61040f565b60405190151581526020016100b4565b6001546100a0906001600160a01b031681565b600061019861019360025460035410610441565b610468565b6001600160a01b0382166000908152600760205260409020546101c1906101939060ff16610441565b60006005600354815481106101d8576101d861073d565b9060005260206000200154905060006101f082610474565b9050836004600354815481106102085761020861073d565b600091825260208083209190910180547fffffffffffffffffffffffff0000000000000000000000000000000000000000166001600160a01b039485161790559186168152600782526040808220805460ff1916600190811790915560089093528120805463ffffffff191663ffffffff851617905560038054909190610290908490610753565b909155505060015460405163a9059cbb60e01b81526001600160a01b038681166004830152602482018590529091169063a9059cbb90604401600060405180830381600087803b1580156102e357600080fd5b505af11580156102f7573d6000803e3d6000fd5b505060015460405163ffffffff851681526001600160a01b03918216935090871691507f9c08dd2db03f4114d2e31ce2541f39c81e0abba7f997e4119b4622d1eb9bbaf19060200160405180910390a39392505050565b6060600060035467ffffffffffffffff81111561036d5761036d610774565b604051908082528060200260200182016040528015610396578160200160208202803683370190505b50905060005b60035481101561040957600481815481106103b9576103b961073d565b9060005260206000200160009054906101000a90046001600160a01b03168282815181106103e9576103e961073d565b6001600160a01b039092166020928302919091019091015260010161039c565b50919050565b6001600160a01b03811660009081526007602052604081205460ff1615801561043b5750600254600354105b92915050565b6000811561045b5761043b610456600161047f565b61048c565b61043b610456600061047f565b61047181610499565b50565b600061043b8261050e565b600061043b826000610572565b600061043b826000610609565b6000816040516024016104ae91815260200190565b60408051601f198184030181529190526020810180517bffffffffffffffffffffffffffffffffffffffffffffffffffffffff16634ee071a160e01b1781528151919250605d9060009081908490845afa61050857600080fd5b50505050565b6040516301693b9160e61b815260048101829052600090605d90635a4ee44090602401602060405180830381865afa15801561054e573d6000803e3d6000fd5b505050506040513d601f19601f8201168201806040525081019061043b919061078a565b604051631ce2e8d760e31b8152600481018390527fff0000000000000000000000000000000000000000000000000000000000000060f883901b166024820152600090605d9063e71746b890604401602060405180830381865afa1580156105de573d6000803e3d6000fd5b505050506040513d601f19601f82011682018060405250810190610602919061078a565b9392505050565b60008261061d5761061a600061047f565b92505b6106028360ff841660016000600160f81b604051631927108160e01b815260048101869052602481018590527fff0000000000000000000000000000000000000000000000000000000000000082166044820152605d90631927108190606401602060405180830381865afa15801561069a573d6000803e3d6000fd5b505050506040513d601f19601f820116820180604052508101906106be919061078a565b95945050505050565b6000602082840312156106d957600080fd5b81356001600160a01b038116811461060257600080fd5b6020808252825182820181905260009190848201906040850190845b818110156107315783516001600160a01b03168352928401929184019160010161070c565b50909695505050505050565b634e487b7160e01b600052603260045260246000fd5b8082018082111561043b57634e487b7160e01b600052601160045260246000fd5b634e487b7160e01b600052604160045260246000fd5b60006020828403121561079c57600080fd5b505191905056fea164736f6c6343000816000a",
    "linkReferences": {},
    "deployedLinkReferences": {}
}